:0400000041EF00F0DC
:100008005582FACF47F0FBCF48F0E9CF49F0EACF65
:100018004AF0E1CF4BF0E2CF4CF0D9CF4DF0DACF38
:100028004EF0F3CF4FF0F4CF50F0F6CF51F0F7CFBA
:1000380052F0F8CF53F0F5CF54F05AEC0BF054C00F
:10004800F5FF53C0F8FF52C0F7FF51C0F6FF50C08C
:10005800F4FF4FC0F3FF4EC0DAFF4DC0D9FF4CC0CC
:10006800E2FF4BC0E1FF4AC0EAFF49C0E9FF48C0D0
:0E007800FBFF47C0FAFF559211004FEF15F045
:100F000000C60F4C0F800F090F09024300020100B9
:100F1000C032090400000102020100052400100192
:100F2000042402020524060001052401000107052E
:100F3000810308000209040100020A0000000705FD
:100F400002024000000705820240000034034D0009
:100F50006900630072006F00630068006900700040
:100F6000200054006500630068006E006F006C0094
:100F70006F0067007900200049006E0063002E00BA
:100F800034034300440043002000520053002D006E
:100F9000320033003200200045006D0075006C0007
:100FA0006100740069006F006E002000440065005D
:100FB0006D006F001201000202000008D8040A0050
:0B0FC00000010102000104030904000D
:100FCC0004013205D8A410D0040130511F0B0009C4
:100FDC00D8A40AD00C8E030E04013119D8A402D067
:100FEC00010E01D0000E1C6E04013251D8A4120067
:100FFC00040130511F0B020AD8A412000401345111
:10100C000F0B0009D8B41200040134510F0B3F6EC2
:10101C00030E3F601200200E2018D8A412000C8E74
:10102C00040134BF1BD0040134510F0B3F6E3F50F1
:10103C00020D6A0EF324D96E000EF420DA6EDECFA8
:10104C0043F0DDCF44F0040134510F0B3F6E3F50A1
:10105C00010D810EF324D96E000E1AD00401345107
:10106C000F0B3F6E3F50020D0F0EF324D96E000E86
:10107C00F420DA6EDECF43F0DDCF44F004013451BE
:10108C000F0B3F6E3F50010D7E0EF324D96E000EF8
:10109C00F420DA6EDF50426E42B006D0FB0E4314E1
:1010AC00436EFF0E441404D0040E4310436E4450A0
:1010BC00446E040134BF0BD0040134510F0B3F6E4E
:1010CC003F50020D6A0EF324D96E000E0AD00401B3
:1010DC0034510F0B3F6E3F50020D0F0EF324D96E9F
:1010EC00000EF420DA6E43C0DEFF44C0DDFF030EB9
:1010FC0004013119D8A42FD043C0D9FF44C0DAFF62
:10110C00DFAE1CD0040134BF0BD0040134510F0BE3
:10111C003F6E3F50010D810EF324D96E000E0AD0A4
:10112C00040134510F0B3F6E3F50010D7E0EF32422
:10113C00D96E000EF420DA6E0001DF8243C0D9FFB5
:10114C0044C0DAFF000EDB8443C0D9FF44C0DAFF91
:10115C00000EDB8E1200040E4318436E4450446E96
:10116C0043C0D9FF44C0DAFFDFAE1BD043C0D9FF68
:10117C0044C0DAFF7F0EDF1643C0D9FF44C0DAFF4C
:10118C00000EDB8C000E386E050E376E43C039F046
:10119C0044C03AF0000E3C6E020E3B6EC8EC13F0ED
:1011AC0006D043C0D9FF44C0DAFF000EDB8C040E1E
:1011BC004318436E4450446E42B206D043C0D9FF2C
:1011CC0044C0DAFFDFAE31D0040134BF0BD00401D0
:1011DC0034510F0B3F6E3F50010D810EF324D96E2D
:1011EC00000E0AD0040134510F0B3F6E3F50010D1D
:1011FC007E0EF324D96E000EF420DA6E0001DF921D
:10120C0043C0D9FF44C0DAFF3B0EDF16000E386E28
:10121C00050E376E43C039F044C03AF0000E3C6EF8
:10122C00020E3B6EC8EC13F006D043C0D9FF44C08D
:10123C00DAFF3B0EDF16040134510F0B3F6E3F50AB
:10124C00010D260EF324406E0F0EF420416E40C0AB
:10125C00D9FF41C0DAFFFE0EDF161200200E20600F
:10126C0001D0120065B21200010E9EEC16F0E806D9
:10127C00D8A411D000019B51D8A410D02450D8A4CC
:10128C000DD0B90E0001CB6F000E0001CC6F7CECC1
:10129C0015F0010E01D0000E00019B6F2450D8A454
:1012AC00A1D0800E0001D66F010E0001D76F030E86
:1012BC000001D86F4CEC11F00001DB6F69EC17F0FA
:1012CC000001DB510001D8B433D0000E0001DC6FFB
:1012DC00020E0001DC6501D017D00001DC51010DBC
:1012EC00800EF324D96E010EF420DA6E0001DC516D
:1012FC00010DAE0EF324E16E000EF420E26EDFCF92
:10130C00E7FF0001DC2BE4D769EC17F0AE0E00010F
:10131C00CB6F000E0001CC6F000E0001CE6F030EE0
:10132C00CD6F010E83EC14F066EC17F069EC17F03E
:10133C00000E0001DC6F41D00001DC51010D800E6C
:10134C00F324D96E010EF420DA6E0001DC51010D8C
:10135C00C00EF324E16E010EF420E26EDFCFE7FF46
:10136C002AD00001DC51010DC00EF324D96E010E00
:10137C00F420DA6E0001DC51010D800EF324E16ED5
:10138C00010EF420E26EE7500001DA6F0001DA2959
:10139C00DF6E11D00001DC51010D800EF324D96EEB
:1013AC00010EF420DA6EDF500A0AD8B4C5D7070A4A
:1013BC00D8B4C2D7D6D70001DC2B0001DB51000119
:1013CC00DC5DD8A0E7D70001DB510001D8B40AD00E
:1013DC00C00E0001CB6F010E0001CC6FDBC0CDF055
:1013EC00EEEC16F0FDEC0BF01200A098000E636E04
:1013FC00000E626E000E0F01266F270E0001CB6FE0
:10140C000F0E0001CC6F000E0001CE6F000ECD6FE1
:10141C00000E0001D06F020ECF6F3EEC16F0160ED0
:10142C000F01396F9F0E0F01376F7B0E0F01366F57
:10143C00000E0001D36F0B0E0001D36501D010D04C
:10144C000001D351040D000EF324D96E040EF420C8
:10145C00DA6EDE6ADE6ADE6ADD6A0001D32BEBD758
:10146C00658C000E0F01386F6598659C6296000EB6
:10147C000C6E000E046E000E066E000E056E62B64B
:10148C00F5D7010E216E010E226E000E1E6E000E9F
:10149C000001996F000E1D6E000E0001D36F020E3D
:1014AC000001D36501D033D00001D351020D0F0ED2
:1014BC00F324D96E000EF420DA6E000EDE6E000EF0
:1014CC00DD6E0001D351020D6A0EF324D96E000EAD
:1014DC00F420DA6E000EDE6E000EDD6E0001D351CC
:1014EC00010D7E0EF324D96E000EF420DA6E000E80
:1014FC00DF6E0001D351010D810EF324D96E000E65
:10150C00F420DA6E000EDF6E0001D32BC8D7080E64
:10151C000F6E040E106E160E0F01266F040E0401D2
:10152C00036F300E026F080E0401016F040E0401EC
:10153C00006F0401008F000E296E000E00017A6FFF
:10154C00000E7B6F000E7C6F000E7D6F000E000195
:10155C009A6F000E206E1200A098000E636E000EA3
:10156C00626E000E0F01266F270E2B6E0F0E2C6E67
:10157C00000E2E6E000E2D6E000E306E020E2F6EB3
:10158C0088EC16F0160E0F01396F9F0E0F01376F96
:10159C007B0E0F01366F000E336E0B0E336401D0D1
:1015AC000ED03350040D000EF324D96E040EF4202B
:1015BC00DA6EDE6ADE6ADE6ADD6A332AEED7658CA5
:1015CC00000E0F01386F6598659C6296000E0C6ECC
:1015DC00000E046E000E066E000E056E62B6F5D798
:1015EC00010E216E010E226E000E1E6E000E000109
:1015FC00996F000E1D6E000E336E020E336401D017
:10160C002ED03350020D0F0EF324D96E000EF420A1
:10161C00DA6E000EDE6E000EDD6E3350020D6A0EB9
:10162C00F324D96E000EF420DA6E000EDE6E000E7E
:10163C00DD6E3350010D7E0EF324D96E000EF420B6
:10164C00DA6E000EDF6E3350010D810EF324D96E6D
:10165C00000EF420DA6E000EDF6E332ACED7080EA1
:10166C000F6E040E106E160E0F01266F040E040181
:10167C00036F300E026F080E0401016F040E04019B
:10168C00006F0401008F000E296E000E00017A6FAE
:10169C00000E7B6F000E7C6F000E7D6F000E000144
:1016AC009A6F000E206E12002004D8B465BA08D0D0
:1016BC00000E626E0F0136810F013689020E206E0C
:1016CC0062A406D00F0136A503D0629423EC16F069
:1016DC0065A202D0A198120062A009D00F0136A118
:1016EC0006D0B2EC0AF0A088040E206E629062A8BC
:1016FC0004D00F0136B958EC16F062AC1BD00F01B8
:10170C0036AD0ED0000E386E730E376E000E396E7D
:10171C00000E3A6E000E3C6E010E3B6EC8EC13F0E0
:10172C00629CDBEC16F02350D8A423062350D8B4CB
:10173C008BEC10F062AA04D00F0136BBA6EC15F0AE
:10174C0062A212D00F0136A30FD07F0E386E37680D
:10175C00000E396E000E3A6E000E3C6E010E3B6EA2
:10176C00C8EC13F0000E636E040E206002D0A1983A
:10177C0012000F0136A739D0000E466E030E4664D8
:10178C0001D033D062A631D064CF2AF02A30E832AF
:10179C00E8320F0B276E62962AB407D02750010D42
:1017AC00810EF324D96E000E06D02750010D7E0E4B
:1017BC00F324D96E000EF420DA6E0001DF7027508E
:1017CC00D8A403D0A2EC12F00ED0000E386E720E1C
:1017DC00376E2A0E396E000E3A6E000E3C6E000EFD
:1017EC003B6EC8EC13F0462AC9D7A1981200A098FA
:1017FC000001925100019311D8B409D092C0D9FFC5
:10180C0093C0DAFF0001DFAE02D0A0881200030EF5
:10181C002418D8A402D0000E246E2450D8A402D0D0
:10182C00A0881200020E2418D8A416D0010E0001B4
:10183C00CB6F000E0001CC6F000E0001CD6F000EBF
:10184C000001CE6F020E9FEC0CF0CBC092F0CCC01E
:10185C0093F0030E246E6BD02404D8A468D0400EF1
:10186C00256404D0400E0001D76F02D025C0D7F0FC
:10187C000001D75100082524256E400E0001846F0D
:10188C00010E0001856FD7C0D6F000019C51D8B471
:10189C0013D02AD087C0D9FF88C0DAFF84C0E1FFFB
:1018AC0085C0E2FFDFCFE7FF0001844B852B0001F1
:1018BC00874B882B0001D6070001D6510001D8B404
:1018CC0018D0E8D787C0D9FF88C0DAFF84C0E1FF01
:1018DC0085C0E2FFDFCFE7FF0001844B852B0001C1
:1018EC00874B882B0001D6070001D6510001D8A4E4
:1018FC00E9D72550D8A409D0400E0001D719D8A497
:10190C0002D0020E01D0030E246E010E0001CB6F2B
:10191C00400E0001CC6F010E0001CD6FD7C0CEF090
:10192C00020E9FEC0CF0CBC092F0CCC093F0A088D0
:10193C0012000001D36F0001CB510001D8B408D0C4
:10194C000001D351020D0F0EF324D96E000E07D0F7
:10195C000001D351020D6A0EF324D96E000EF4204F
:10196C00DA6EDECFD4F0DDCFD5F00001D45100011A
:10197C00D511D8A407D0000E0001CB6F000E0001CA
:10198C00CC6F1200000120EE02F0D451D926D551B3
:10199C00DA22CCC0DEFFCDC0DDFF000120EE01F06D
:1019AC00D451D926D551DA22CEC0DFFFD4C0D9FF0D
:1019BC00D5C0DAFF400EDF16D4C0D9FFD5C0DAFF90
:1019CC00000EDB86D4C0D9FFD5C0DAFF000EDB8E4B
:1019DC000001CB510001D8B41ED00001D351020D2F
:1019EC000F0EF324D96E000EF420DA6EDECFCFF09A
:1019FC00DDCFD0F0040E0001CF190001D16F000132
:101A0C00D0510001D26F0001D351020D0F0EF324FF
:101A1C00D96E000E1DD00001D351020D6A0EF324B5
:101A2C00D96E000EF420DA6EDECFCFF0DDCFD0F021
:101A3C00040E0001CF190001D16F0001D05100013B
:101A4C00D26F0001D351020D6A0EF324D96E000E31
:101A5C00F420DA6ED1C0DEFFD2C0DDFFD4C0CBF0F3
:101A6C00D5C0CCF01200800E04013019D8A412009D
:101A7C00C00E0C6E7CD0B40E096E0F0E0A6E000EEA
:101A8C000E6E120E0D6E120004013251D8A43ED00F
:101A9C0004013251020D070EF324F66E0F0EF420E2
:101AAC00F76E0900F5CF09F00A00F5CF0AF0020E27
:101ABC0009242B6E000E0A202C6E2BC0F6FF2CC0B6
:101ACC00F7FFF86A0E0EF76403D00800F55005D046
:101ADC00F6CFE1FFF7CFE2FFE7500D6E030E0924BE
:101AEC002B6E000E0A202C6E2BC0F6FF2CC0F7FFBD
:101AFC00F86A0E0EF76403D00800F55005D0F6CF47
:101B0C00E1FFF7CFE2FFE7500E6E1200000E0C6EF5
:101B1C001200030E0401326124D004013251020D73
:101B2C00010EF324F66E0F0EF420F76E0900F5CFBC
:101B3C0009F00A00F5CF0AF009C0F6FF0AC0F7FF5A
:101B4C00F86A0E0EF76403D00800F55005D0F6CFF6
:101B5C00E1FFF7CFE2FFE7502B6E2B500D6E0E6AB4
:101B6C001200000E0C6E1200000E0C6E120004011E
:101B7C003351010AD8B47FD7030AD8B485D7010AE8
:101B8C00D8B4C7D7F1D720EE01F01750D92618508A
:101B9C00DA22DF502C6E2C50055C000E0658D8A0B3
:101BAC0005C02CF02C50055E000E065A000E2B6E54
:101BBC0011D02B50010D380EF324D96E040EF420E5
:101BCC00DA6E01C0E1FF02C0E2FFDFCFE7FF014A9E
:101BDC00022A2B2A2C502B5CD8A0EBD705500610D0
:101BEC00D8B432D020EE01F01950D9261A50DA228E
:101BFC00080EDF6E20EE02F01950D9261A50DA22A8
:101C0C00380EDE6E040EDD6E17C0D9FF18C0DAFF79
:101C1C00DFBC0DD019C0D9FF1AC0DAFF480EDF6E39
:101C2C0019C0D9FF1AC0DAFF000EDB8E120019C0E2
:101C3C00D9FF1AC0DAFF080EDF6E19C0D9FF1AC01F
:101C4C00DAFF000EDB8E120020EE01F01950D926BF
:101C5C001A50DA22080EDF6E20EE02F01950D92647
:101C6C001A50DA22300EDE6E040EDD6E19C0D9FF6A
:101C7C001AC0DAFF040EDF6E19C0D9FF1AC0DAFFE2
:101C8C00000EDB8E049E1F50D8A412008BEC10F0BB
:101C9C001200336E2B50D8B407D03350020D0F0EF8
:101CAC00F324D96E000E06D03350020D6A0EF324C5
:101CBC00D96E000EF420DA6EDECF34F0DDCF35F0C5
:101CCC0034503510D8A405D0000E2B6E000E2C6E9F
:101CDC00120020EE02F03450D9263550DA222CC0F6
:101CEC00DEFF2DC0DDFF20EE01F03450D92635503B
:101CFC00DA222EC0DFFF34C0D9FF35C0DAFF400E28
:101D0C00DF1634C0D9FF35C0DAFF000EDB8634C0D5
:101D1C00D9FF35C0DAFF000EDB8E2B50D8B418D0AB
:101D2C003350020D0F0EF324D96E000EF420DA6E30
:101D3C00DECF2FF0DDCF30F0040E2F18316E305087
:101D4C00326E3350020D0F0EF324D96E000E17D0E5
:101D5C003350020D6A0EF324D96E000EF420DA6EA5
:101D6C00DECF2FF0DDCF30F0040E2F18316E305057
:101D7C00326E3350020D6A0EF324D96E000EF4202D
:101D8C00DA6E31C0DEFF32C0DDFF34C02BF035C05F
:101D9C002CF0120065980CBE39D004AE0CD0020E9B
:101DAC00266E00019951D8B455EC12F0000E226E3B
:101DBC00000E216E120020EE01F01950D9261A5097
:101DCC00DA22080EDF6E20EE02F01950D9261A50D6
:101DDC00DA22300EDE6E040EDD6E19C0D9FF1AC089
:101DEC00DAFF0C0EDF6E19C0D9FF1AC0DAFF000E35
:101DFC00DB8E0FC0D9FF10C0DAFF040EDF6E0FC0F0
:101E0C00D9FF10C0DAFF000EDB8E1200040130AFD8
:101E1C0010D0010E266E1E50D8B455EC12F0000EE8
:101E2C00226E000E216E1F50D8A412008BEC10F005
:101E3C001200020E266E20EE01F01950D9261A500F
:101E4C00DA22080EDF6E20EE02F01950D9261A5055
:101E5C00DA22300EDE6E040EDD6E19C0D9FF1AC008
:101E6C00DAFF040EDF6E19C0D9FF1AC0DAFF000EBC
:101E7C00DB8E000E226E000E216E1F50D8A41200B5
:101E8C008BEC10F012000C8E270E2B6E0F0E2C6E9E
:101E9C00000E2E6E000E2D6E000E306E020E2F6E8A
:101EAC0088EC16F0000E2B6E040E2C6E000E2E6EAF
:101EBC00000E2D6E000E306E300E2F6E88EC16F06C
:101ECC00658C000E3F6E020E3F6401D016D03F5061
:101EDC00010D7E0EF324D96E000EF420DA6E000E86
:101EEC00DF6E3F50010D810EF324D96E000EF420ED
:101EFC00DA6E000EDF6E3F2AE6D7B10E2B6E000EA7
:101F0C002C6E000E2E6E000E2D6E000E306E020E1C
:101F1C002F6E88EC16F0659C080E0F6E040E106E7A
:101F2C00000E176E040E186E17C019F018C01AF0B8
:101F3C0032C429F02950D8A403D0100E206E120000
:101F4C00000E386E010E376E290E396E000E3A6E89
:101F5C00000E3C6E010E3B6EC8EC13F0200E206E92
:101F6C00120004013039E832030B0009D8A4120026
:101F7C0043D00C8E080E206E120039EC0DF01200BE
:101F8C0049EC0FF01200290E096E000E0A6E0C803F
:101F9C00010E0D6E0C8E120000EC12F01200E6EC2D
:101FAC0007F0120004013451010DB10EF324096E37
:101FBC00000EF4200A6E0C80010E0D6E0C8E1200B9
:101FCC000C8E04013451010DB10EF324D96E000EA8
:101FDC00F420DA6E32C4DFFF1200000E386E020EEF
:101FEC00376E000E396E000E3A6E000E3C6E000E0F
:101FFC003B6EC8EC13F0120004013151000AD8B446
:10200C00CBD7010AD8B4CBD7020AD8B4C8D7060AA2
:10201C00D8B4AFD7030AD8B4B0D7010AD8B4DDD737
:10202C000F0AD8B4B0D7010AD8B4AAD7030AD8B4C7
:10203C00B9D7010AD8B4C4D7070A1200080E2B6E00
:10204C000E5010E1080E0D5CD8B00CD00DC02BF06A
:10205C002850D8A402D0010E04D02804D8A402D051
:10206C00020E286E2B500D5E000E0E5A20EE01F063
:10207C000F50D9261050DA222BC0DFFF380E00018A
:10208C00966F040E0001976F0CA01CD03AD009C0BB
:10209C00F6FF0AC0F7FFF86A96C0D9FF97C0DAFFBF
:1020AC000E0EF76403D00800F55005D0F6CFE1FF13
:1020BC00F7CFE2FFE750DF6E094A0A2A0001964B80
:1020CC00972B2B062B50D8B41200E1D709C0F6FF82
:1020DC000AC0F7FFF86A96C0D9FF97C0DAFF0E0E58
:1020EC00F76403D00800F55005D0F6CFE1FFF7CF29
:1020FC00E2FFE750DF6E094A0A2A0001964B972B44
:10210C002B062B50D8B41200E1D72150D8A41200C2
:10211C00010E216E2250D8A41200010E226E020E66
:10212C002618D8A415D020EE01F00F50D926105047
:10213C00DA22000EDF6E0FC0D9FF10C0DAFF480E96
:10214C00DF6E0FC0D9FF10C0DAFF000EDB8E12005D
:10215C002604D8A41200000E1B6E20EE01F01750BE
:10216C00D9261850DA22080EDF6E20EE02F0175036
:10217C00D9261850DA22300EDE6E040EDD6E17C032
:10218C00D9FF18C0DAFF040EDF6E17C0D9FF18C0D4
:10219C00DAFF000EDB8E010E1B6E20EE01F01950E3
:1021AC00D9261A50DA22080EDF6E20EE02F01950F2
:1021BC00D9261A50DA22300EDE6E040EDD6E19C0EE
:1021CC00D9FF1AC0DAFF800EDF6E12000FC0D9FFE4
:1021DC0010C0DAFF000EDFBC010E2C6E040E0F18BF
:1021EC000F6E1050106E080E2018D8A40DD00401DC
:1021FC0032517F0B0F01386F0F013851D8B402D018
:10220C00100E01D0040E206E2604D8A43AD020EE75
:10221C0002F00F50D9261050DA22380EDE6E040E62
:10222C00DD6E24EC10F0020E2818D8A40DD00FC0CF
:10223C00D9FF10C0DAFF040EDF6E0FC0D9FF10C03B
:10224C00DAFF000EDB8E12002C50D8A40DD00FC07C
:10225C00D9FF10C0DAFF480EDF6E0FC0D9FF10C0D7
:10226C00DAFF000EDB8E12000FC0D9FF10C0DAFFB0
:10227C00080EDF6E0FC0D9FF10C0DAFF000EDB8E28
:10228C00120004BE049E000E266E1200000E000109
:10229C009D6F0001945100019511D8B407D094C0E2
:1022AC00D9FF95C0DAFF0001DFBE4BD0000120EE54
:1022BC0001F09451D9269551DA220001D851DE5CF7
:1022CC00D8B00AD0000120EE01F09451D9269551D6
:1022DC00DA22DF500001D86F000E00019D6F18D07C
:1022EC0000019D51010D000EF324D96E010EF42056
:1022FC00DA6E00019D51010DF3500001D625E16EFF
:10230C00F4500001D721E26EDFCFE7FF00019D2BD7
:10231C000001D85100019D5DD8A0E2D7000E00014C
:10232C00CB6F000E0001CC6F010E0001CD6F400E83
:10233C000001CE6F020E9FEC0CF0CBC094F0CCC021
:10234C0095F000019D511200040130511F0BE8065D
:10235C00D8A4120004013039E832030BE806D8A4E3
:10236C00120004013451D8B433D004013405D8A47C
:10237C0012002ED09F0E096E000E0A6E000E0E6E0D
:10238C00080E0D6E0C800C8E12009F0E096E000E46
:10239C000A6E0C8E120036C405F037C406F0A70E78
:1023AC00016E000E026E000E076E000E086E048E9B
:1023BC001200A70E096E000E0A6E000E0E6E070EAE
:1023CC000D6EC10E0C6E120032C49EF00C8E1200FB
:1023DC0004013151000AD8B4CDD7010AD8B4D5D7ED
:1023EC00210AD8B4D8D7010AD8B4E3D7030AD8A4A1
:1023FC001200EAD7000E0401386F000E0401396F89
:10240C0038D00C8E1C04D8A440D0040138833DD0A5
:10241C000C8E3BD00C8E040134BF0BD00401345114
:10242C000F0B2B6E2B50020D6A0EF324D96E000E7F
:10243C000AD0040134510F0B2B6E2B50020D0F0ED2
:10244C00F324D96E000EF420DA6EDECF2CF0DDCF43
:10245C002DF02CC0D9FF2DC0DAFFDFAE16D02CC06A
:10246C00D9FF2DC0DAFFDFA410D0010E0401386FA4
:10247C000CD0040130511F0B000AD8B4C2D7010A8A
:10248C00D8B4C6D7030AD8B4C5D70CAE1200380ED0
:10249C00096E040E0A6E0C80020E0D6E1200000EF8
:1024AC001E6E000E0001996F020E2618D8A41FD0C4
:1024BC0020EE01F01950D9261A50DA22080EDF6EE0
:1024CC0020EE02F01950D9261A50DA22380EDE6EA0
:1024DC00040EDD6E19C0D9FF1AC0DAFF480EDF6E8C
:1024EC0019C0D9FF1AC0DAFF000EDB8E12000D5096
:1024FC000401365D0E5004013759D8B004D036C4EF
:10250C000DF037C40EF024EC10F020EE02F00F505A
:10251C00D9261050DA22380EDE6E040EDD6E0FC096
:10252C00D9FF10C0DAFF480EDF6E0FC0D9FF10C004
:10253C00DAFF000EDB8E12002D0E236E2AC045F042
:10254C00FD0E4516D8A43BD02AC045F0D890453294
:10255C003F0E45164550040D000EF324176E040E65
:10256C00F420186E17C019F018C01AF0040E1918C0
:10257C00196E1A501A6E17C0D9FF18C0DAFFDF3067
:10258C00E8320F0B0D0AD8A417D0300E2B6E040EA8
:10259C002C6E20EE02F01750D9261850DA22DECF1E
:1025AC002DF0DDCF2EF0000E306E080E2F6EC9EC24
:1025BC0015F080EC13F0120021EC15F012002A50EB
:1025CC00FD0B040AD8A41200ECEC10F01200306ED3
:1025DC00000E316E040E326E2B502C6E2D6AD8907C
:1025EC002C362D3630502E6E2F6AD8902E362F3634
:1025FC00D8902E362F362C502E262D502F22D89098
:10260C002E362F36D8902E362F362E5031262F5070
:10261C00322231C0D9FF32C0DAFFDF9E2B50D8A452
:10262C0007D03050020D6A0EF324D96E000E06D07E
:10263C003050020D0F0EF324D96E000EF420DA6E1A
:10264C0031C0DEFF32C0DDFF31C0D9FF32C0DAFF4E
:10265C00DF9C20EE04F03150D9263250DA22DF8C88
:10266C0012002BC0D9FF2CC0DAFFDE04DE10D8A478
:10267C001200000EC76E20EE03F02B50D9262C5002
:10268C00DA22DF502D6E2D3A2D462D46C7502D18CF
:10269C00BF0B2D18C76E000EC66E20EE02F02B502D
:1026AC00D9262C50DA22DF502D6EC6502D18F00B87
:1026BC002D18C66E0AD0C69803D0C69804D0C6880A
:1026CC00C79E16D0C688C78E13D020EE04F02B50B0
:1026DC00D9262C50DA22DF50500AD8B4ECD7010A94
:1026EC00D8B4EBD7030AD8B4EAD7010AD8B4EAD7DE
:1026FC00C68A1200000E286E000E1F6E000E1E6E93
:10270C00000E0001996F000E1B6E000E266E0FC09E
:10271C00D9FF10C0DAFF7F0EDF16040E0F180F6EF4
:10272C001050106E0FC0D9FF10C0DAFF7F0EDF16ED
:10273C00040E0F180F6E1050106E19C0D9FF1AC06E
:10274C00DAFF7F0EDF16000E0C6E000E0E6E000E02
:10275C000D6E000E046E000E066E000E056EB7ECCC
:10276C000FF0000E386E030E376E000E396E000E31
:10277C003A6E000E3C6E000E3B6EC8EC13F0D0ECC3
:10278C000EF0120017D009EC14F0120009EC14F042
:10279C00010EF1EC14F0120009EC14F0020EF1EC45
:1027AC0014F01200BAEC14F070EC16F01200AAEC53
:1027BC0011F0120037C03DF038C03EF03E50000A18
:1027CC00D8B404D07F0AD8A412001AD03D50010A04
:1027DC00D8B4E8D7030AD8B41200010AD8B4E7D7A2
:1027EC00060AD8B41200770AD8B41200010AD8B479
:1027FC00CAD7070AD8B4D0D7010AD8A41200C6D7B2
:10280C003D50FF0A120065A236D0010E21EC17F0E4
:10281C00120015041610D8A404D0010E10EC17F0F9
:10282C002FD04B0E15181610D8A404D0010E21EC85
:10283C0017F026D0165004E1970E155CD8A020D0C6
:10284C00000E166E000E156E1BD015041610D8A4B3
:10285C0004D0010E10EC17F013D0320E1518161010
:10286C00D8A404D0010E21EC17F00AD0B70E155CD9
:10287C00030E1658E3D72050200AD8B4CAD7E5D790
:10288C00154A162A12000001D06F2BD0020E00013F
:10289C00CD6F580ECC6F9B8C0001CC07D8A0CD0708
:1028AC000001CC29F9E10001CD29D8A4F5D7010EFE
:1028BC00C8EC16F0010E32EC17F01200700ED36E4D
:1028CC00030E0001CF6F200ECE6F0001CE07D8A0F3
:1028DC00CF070001CE29F9E10001CF29D8B41200AD
:1028EC00F4D70001D051000AD8B4D0D7010AD8B41B
:1028FC001200030AD8A41200E1D70001CF6F000127
:10290C00CD510001CE11D8B41200E9CF8EF0EACF30
:10291C008FF0F3CF90F0F4CF91F0CDC0F3FFCEC099
:10292C00F4FFCBC0E9FFCCC0EAFF0001CF05D8A46F
:10293C0012D0EE5003D0EE509EA6FED79E96C96ED6
:10294C00000EF306F45AF350F410F5E19EA6FED7F0
:10295C00C9CF98F09E9690C0F3FF91C0F4FF8EC043
:10296C00E9FF8FC0EAFF1200000E0001A76F4B0EAB
:10297C00A86F000EA96F000EAA6F000E0001AB6FBE
:10298C00000E0001AC6F080E0001AD6F000E0001CF
:10299C009D6F1A0E336E010EE9EC15F01E0E336EA0
:1029AC00020EE9EC15F0000E2B6E000E2C6E010ED3
:1029BC002D6E400E2E6E020E4FEC0EF02BC094F0CE
:1029CC002CC095F0000E0001926F000E0001936F69
:1029DC00000E246E1200306E23D0020E2D6E580E97
:1029EC002C6E9B8C2C06D8A02D062C28FBE12D28B8
:1029FC00D8A4F8D7010EFFEC16F0010E42EC17F03C
:102A0C001200700ED36E030E2F6E200E2E6E2E063D
:102A1C00D8A02F062E28FBE12F28D8B41200F7D708
:102A2C003050000AD8B4D9D7010AD8B41200030A1E
:102A3C00D8A41200E6D7020E2618D8A403D0C9ECED
:102A4C000DF01200000E266E1B50D8A41FD020EEE5
:102A5C0001F01950D9261A50DA22080EDF6E20EE3A
:102A6C0002F01950D9261A50DA22300EDE6E040EFE
:102A7C00DD6E19C0D9FF1AC0DAFF0C0EDF6E19C05B
:102A8C00D9FF1AC0DAFF000EDB8E1200000E1B6E8F
:102A9C00120001EE00F011EE00F0EE6AE550E1508C
:102AAC00FCE1E250FAE100EE60F0530EEE6AE8064B
:102ABC00FDE100EE01F02A0EEE6AE806FDE1A00E43
:102ACC00F66E2E0EF76E000EF86E00EEB3F010EEF2
:102ADC0018F00900F5CFEEFFE550E150FAE1559002
:102AEC005592000EF86E00015CEF17F0A098245080
:102AFC00D8B402D0A0881200000E0001CF6FCBC05A
:102B0C00CDF0CCC0CEF00001CF2B0001CF29D8B432
:102B1C000AD0CDC0D9FFCEC0DAFF0001CD4BCE2BF1
:102B2C00DF50D8A4F0D7CBC087F0CCC088F0CFC092
:102B3C0025F0000E00019C6F010E246EA08812007F
:102B4C000F0126A11ED017C0D9FF18C0DAFF800EC6
:102B5C00DE18D8A414D00FC0D9FF10C0DAFF840E31
:102B6C00DE18D8A40CD017C0D9FF18C0DAFF0C0E91
:102B7C00DF6E17C0D9FF18C0DAFF000EDB8E0F0115
:102B8C002691629A12002DC033F02EC034F02BC067
:102B9C0031F02CC032F00ED033C0D9FF34C0DAFF84
:102BAC0031C0E1FF32C0E2FFDFCFE7FF334A342A06
:102BBC00314A322A2F06D8A030062F28EDE13028D2
:102BCC00D8B41200E9D7366E33A405D0000E2B6EA4
:102BDC003650EDEC12F033A205D0010E2B6E3650B0
:102BEC00EDEC12F03650010D260EF324346E0F0E60
:102BFC00F420356E34C0D9FF35C0DAFF33C0DFFFA7
:102C0C0012002050D8A41200000E656E000E0F01A9
:102C1C00366F160E0F01396F9F0E0F01376F7B0E3B
:102C2C000F01366FD08EA288A088F28E01D06586F7
:102C3C0065A6FDD7010E206E1200000E1D6E000E53
:102C4C00386E740E376E000E396E000E3A6E000E32
:102C5C003C6E000E3B6EC8EC13F065920F0136957E
:102C6C0001D0629462B4FDD7000E00019A6F12007D
:102C7C00CBC0D1F0CCC0D2F009D0D1C0D9FFD2C0DA
:102C8C00DAFFCDC0DFFF0001D14BD22B0001CF0703
:102C9C00D8A0D0070001CF29F0E10001D029D8B489
:102CAC001200EBD70F01368562986582010E1D6EFE
:102CBC00000E00019A6F000E386E750E376E000E06
:102CCC00396E000E3A6E000E3C6E000E3B6EC8EC78
:102CDC0013F01200000E0001AB6F080E0001AD6F77
:102CEC00000E0001AC6F800E0001A76F250EA86FBF
:102CFC00000EA96F000EAA6F000E00019B6FB3ECC3
:102D0C0016F012002BC031F02CC032F008D031C0BC
:102D1C00D9FF32C0DAFF2DC0DFFF314A322A2F062D
:102D2C00D8A030062F28F3E13028D8B41200EFD702
:102D3C000001CB6F08D081B402D0010E1200000E3E
:102D4C001200000E12000001CB51000AD8B4F9D7C2
:102D5C00010AD8B4F0D7000E12009398949E959E59
:102D6C006CEC17F020EEB3F010EE2FF0050EDBCF6D
:102D7C00E3FFE806FCE22F0E2B6E000E2C6E37ECF8
:102D8C0013F012000001CB6F04D0969012009692B3
:102D9C0012000001CB51000AD8B41200010AD8B4B9
:102DAC00F4D7030AD8A41200F2D7010E00017A2737
:102DBC00000E7B237C237D231D50D8A41200000120
:102DCC009A2B00019A51D8A4120000019A691200A2
:102DDC00A0982450D8A40BD0CBC087F0CCC088F0DE
:102DEC00CDC025F0010E00019C6F010E246EA08851
:102DFC0012002B6E04D096901200969212002B505B
:102E0C00000AD8B41200010AD8B4F5D7030AD8A422
:102E1C001200F3D72B6E04D08D8012008D8212001D
:102E2C002B50000AD8B41200010AD8B4F5D7030A03
:102E3C00D8A41200F3D72B6E04D08D9012008D9273
:102E4C0012002B50000AD8B41200010AD8B4F5D7DE
:102E5C00030AD8A41200F3D70001CB6F04D09384DB
:102E6C000F01498112000001CB51000AD8B41200A5
:102E7C00010AD8A41200F3D72B6E04D093840F014F
:102E8C00498112002B50000AD8B41200010AD8A4B0
:102E9C001200F4D7010000015000427574746F6E7B
:102EAC0020707265737365642E0D0A00000E49EC78
:102EBC0014F0FBEC09F007EC16F034EC09F0FDD73C
:102ECC008C8E8C8E12008C9E8C9E12008C9E8C9EF6
:022EDC001200E2
:08FFF800AAF71DFF63F881F177
:00000001FF
